{
	"Auction.sol": {
		"Auction": {
			"abi": [
				{
					"constant": false,
					"inputs": [],
					"name": "register",
					"outputs": [],
					"payable": true,
					"stateMutability": "payable",
					"type": "function"
				},
				{
					"constant": true,
					"inputs": [],
					"name": "beneficiary",
					"outputs": [
						{
							"name": "",
							"type": "address"
						}
					],
					"payable": false,
					"stateMutability": "view",
					"type": "function"
				},
				{
					"constant": false,
					"inputs": [
						{
							"name": "_itemId",
							"type": "uint256"
						},
						{
							"name": "_count",
							"type": "uint256"
						}
					],
					"name": "bid",
					"outputs": [],
					"payable": true,
					"stateMutability": "payable",
					"type": "function"
				},
				{
					"constant": true,
					"inputs": [
						{
							"name": "id",
							"type": "uint256"
						}
					],
					"name": "getPersonDetails",
					"outputs": [
						{
							"name": "",
							"type": "uint256"
						},
						{
							"name": "",
							"type": "uint256"
						},
						{
							"name": "",
							"type": "address"
						}
					],
					"payable": false,
					"stateMutability": "view",
					"type": "function"
				},
				{
					"constant": false,
					"inputs": [],
					"name": "revealWinners",
					"outputs": [],
					"payable": false,
					"stateMutability": "nonpayable",
					"type": "function"
				},
				{
					"constant": true,
					"inputs": [
						{
							"name": "",
							"type": "uint256"
						}
					],
					"name": "winners",
					"outputs": [
						{
							"name": "",
							"type": "address"
						}
					],
					"payable": false,
					"stateMutability": "view",
					"type": "function"
				},
				{
					"constant": true,
					"inputs": [
						{
							"name": "",
							"type": "uint256"
						}
					],
					"name": "items",
					"outputs": [
						{
							"name": "itemId",
							"type": "uint256"
						}
					],
					"payable": false,
					"stateMutability": "view",
					"type": "function"
				},
				{
					"inputs": [],
					"payable": true,
					"stateMutability": "payable",
					"type": "constructor"
				}
			],
			"devdoc": {
				"methods": {}
			},
			"evm": {
				"assembly": "    /* \"Auction.sol\":26:6035  contract Auction {\r... */\n  mstore(0x40, 0x60)\n    /* \"Auction.sol\":844:845  0 */\n  0x0\n    /* \"Auction.sol\":827:845  uint bidderCount=0 */\n  0x17\n  sstore\n    /* \"Auction.sol\":1261:1285  uint[] memory emptyArray */\n  tag_2\n  jump\t// in(tag_3)\ntag_2:\n    /* \"Auction.sol\":1205:1215  msg.sender */\n  caller\n    /* \"Auction.sol\":1191:1202  beneficiary */\n  0x16\n  0x0\n    /* \"Auction.sol\":1191:1215  beneficiary = msg.sender */\n  0x100\n  exp\n  dup2\n  sload\n  dup2\n  0xffffffffffffffffffffffffffffffffffffffff\n  mul\n  not\n  and\n  swap1\n  dup4\n  0xffffffffffffffffffffffffffffffffffffffff\n  and\n  mul\n  or\n  swap1\n  sstore\n  pop\n    /* \"Auction.sol\":1307:1345  Item({itemId:0,itemTokens:emptyArray}) */\n  0x40\n  dup1\n  mload\n  swap1\n  dup2\n  add\n  0x40\n  mstore\n  dup1\n    /* \"Auction.sol\":1320:1321  0 */\n  0x0\n    /* \"Auction.sol\":1307:1345  Item({itemId:0,itemTokens:emptyArray}) */\n  dup2\n  mstore\n  0x20\n  add\n    /* \"Auction.sol\":1333:1343  emptyArray */\n  dup3\n    /* \"Auction.sol\":1307:1345  Item({itemId:0,itemTokens:emptyArray}) */\n  dup2\n  mstore\n  pop\n    /* \"Auction.sol\":1296:1301  items */\n  0xd\n    /* \"Auction.sol\":1302:1303  0 */\n  0x0\n    /* \"Auction.sol\":1296:1304  items[0] */\n  0x3\n  dup2\n  lt\n  iszero\n  iszero\n  tag_5\n  jumpi\n  invalid\ntag_5:\n  0x2\n  mul\n  add\n    /* \"Auction.sol\":1296:1345  items[0] = Item({itemId:0,itemTokens:emptyArray}) */\n  0x0\n  dup3\n  add\n  mload\n  dup2\n  0x0\n  add\n  sstore\n  0x20\n  dup3\n  add\n  mload\n  dup2\n  0x1\n  add\n  swap1\n  dup1\n  mload\n  swap1\n  0x20\n  add\n  swap1\n  tag_7\n  swap3\n  swap2\n  swap1\n  jump\t// in(tag_8)\ntag_7:\n  pop\n  swap1\n  pop\n  pop\n    /* \"Auction.sol\":1507:1525  Item(1,emptyArray) */\n  0x40\n  dup1\n  mload\n  swap1\n  dup2\n  add\n  0x40\n  mstore\n  dup1\n    /* \"Auction.sol\":1512:1513  1 */\n  0x1\n    /* \"Auction.sol\":1507:1525  Item(1,emptyArray) */\n  dup2\n  mstore\n  0x20\n  add\n    /* \"Auction.sol\":1514:1524  emptyArray */\n  dup3\n    /* \"Auction.sol\":1507:1525  Item(1,emptyArray) */\n  dup2\n  mstore\n  pop\n    /* \"Auction.sol\":1496:1501  items */\n  0xd\n    /* \"Auction.sol\":1502:1503  1 */\n  0x1\n    /* \"Auction.sol\":1496:1504  items[1] */\n  0x3\n  dup2\n  lt\n  iszero\n  iszero\n  tag_9\n  jumpi\n  invalid\ntag_9:\n  0x2\n  mul\n  add\n    /* \"Auction.sol\":1496:1525  items[1] = Item(1,emptyArray) */\n  0x0\n  dup3\n  add\n  mload\n  dup2\n  0x0\n  add\n  sstore\n  0x20\n  dup3\n  add\n  mload\n  dup2\n  0x1\n  add\n  swap1\n  dup1\n  mload\n  swap1\n  0x20\n  add\n  swap1\n  tag_11\n  swap3\n  swap2\n  swap1\n  jump\t// in(tag_8)\ntag_11:\n  pop\n  swap1\n  pop\n  pop\n    /* \"Auction.sol\":1547:1565  Item(2,emptyArray) */\n  0x40\n  dup1\n  mload\n  swap1\n  dup2\n  add\n  0x40\n  mstore\n  dup1\n    /* \"Auction.sol\":1552:1553  2 */\n  0x2\n    /* \"Auction.sol\":1547:1565  Item(2,emptyArray) */\n  dup2\n  mstore\n  0x20\n  add\n    /* \"Auction.sol\":1554:1564  emptyArray */\n  dup3\n    /* \"Auction.sol\":1547:1565  Item(2,emptyArray) */\n  dup2\n  mstore\n  pop\n    /* \"Auction.sol\":1536:1541  items */\n  0xd\n    /* \"Auction.sol\":1542:1543  2 */\n  0x2\n    /* \"Auction.sol\":1536:1544  items[2] */\n  0x3\n  dup2\n  lt\n  iszero\n  iszero\n  tag_12\n  jumpi\n  invalid\ntag_12:\n  0x2\n  mul\n  add\n    /* \"Auction.sol\":1536:1565  items[2] = Item(2,emptyArray) */\n  0x0\n  dup3\n  add\n  mload\n  dup2\n  0x0\n  add\n  sstore\n  0x20\n  dup3\n  add\n  mload\n  dup2\n  0x1\n  add\n  swap1\n  dup1\n  mload\n  swap1\n  0x20\n  add\n  swap1\n  tag_14\n  swap3\n  swap2\n  swap1\n  jump\t// in(tag_8)\ntag_14:\n  pop\n  swap1\n  pop\n  pop\n    /* \"Auction.sol\":886:1604  function Auction() public payable{    //constructor\r... */\n  pop\n    /* \"Auction.sol\":26:6035  contract Auction {\r... */\n  jump(tag_15)\ntag_3:\n  0x20\n  mload(0x40)\n  swap1\n  dup2\n  add\n  0x40\n  mstore\n  dup1\n  0x0\n  dup2\n  mstore\n  pop\n  swap1\n  jump\t// out\ntag_8:\n  dup3\n  dup1\n  sload\n  dup3\n  dup3\n  sstore\n  swap1\n  0x0\n  mstore\n  keccak256(0x0, 0x20)\n  swap1\n  dup2\n  add\n  swap3\n  dup3\n  iszero\n  tag_16\n  jumpi\n  swap2\n  0x20\n  mul\n  dup3\n  add\ntag_17:\n  dup3\n  dup2\n  gt\n  iszero\n  tag_18\n  jumpi\n  dup3\n  mload\n  dup3\n  sstore\n  swap2\n  0x20\n  add\n  swap2\n  swap1\n  0x1\n  add\n  swap1\n  jump(tag_17)\ntag_18:\ntag_16:\n  pop\n  swap1\n  pop\n  tag_19\n  swap2\n  swap1\n  jump\t// in(tag_20)\ntag_19:\n  pop\n  swap1\n  jump\t// out\ntag_20:\n  tag_21\n  swap2\n  swap1\ntag_22:\n  dup1\n  dup3\n  gt\n  iszero\n  tag_23\n  jumpi\n  0x0\n  dup2\n  0x0\n  swap1\n  sstore\n  pop\n  0x1\n  add\n  jump(tag_22)\ntag_23:\n  pop\n  swap1\n  jump\ntag_21:\n  swap1\n  jump\t// out\ntag_15:\n  dataSize(sub_0)\n  dup1\n  dataOffset(sub_0)\n  0x0\n  codecopy\n  0x0\n  return\nstop\n\nsub_0: assembly {\n        /* \"Auction.sol\":26:6035  contract Auction {\r... */\n      mstore(0x40, 0x60)\n      jumpi(tag_1, iszero(calldatasize))\n      calldataload(0x0)\n      0x100000000000000000000000000000000000000000000000000000000\n      swap1\n      div\n      0xffffffff\n      and\n      dup1\n      0x1aa3a008\n      eq\n      tag_2\n      jumpi\n      dup1\n      0x38af3eed\n      eq\n      tag_3\n      jumpi\n      dup1\n      0x598647f8\n      eq\n      tag_4\n      jumpi\n      dup1\n      0x60981705\n      eq\n      tag_5\n      jumpi\n      dup1\n      0x952587d6\n      eq\n      tag_6\n      jumpi\n      dup1\n      0xa2fb1175\n      eq\n      tag_7\n      jumpi\n      dup1\n      0xbfb231d2\n      eq\n      tag_8\n      jumpi\n    tag_1:\n      0x0\n      dup1\n      revert\n        /* \"Auction.sol\":1618:2215  function register() public payable{\r... */\n    tag_2:\n      tag_9\n      jump(tag_10)\n    tag_9:\n      stop\n        /* \"Auction.sol\":759:785  address public beneficiary */\n    tag_3:\n      jumpi(tag_11, iszero(callvalue))\n      0x0\n      dup1\n      revert\n    tag_11:\n      tag_12\n      jump(tag_13)\n    tag_12:\n      mload(0x40)\n      dup1\n      dup3\n      0xffffffffffffffffffffffffffffffffffffffff\n      and\n      0xffffffffffffffffffffffffffffffffffffffff\n      and\n      dup2\n      mstore\n      0x20\n      add\n      swap2\n      pop\n      pop\n      mload(0x40)\n      dup1\n      swap2\n      sub\n      swap1\n      return\n        /* \"Auction.sol\":2227:4111  function bid(uint _itemId, uint _count) public payable{\r... */\n    tag_4:\n      tag_14\n      0x4\n      dup1\n      dup1\n      calldataload\n      swap1\n      0x20\n      add\n      swap1\n      swap2\n      swap1\n      dup1\n      calldataload\n      swap1\n      0x20\n      add\n      swap1\n      swap2\n      swap1\n      pop\n      pop\n      jump(tag_15)\n    tag_14:\n      stop\n        /* \"Auction.sol\":5733:5903  function getPersonDetails(uint id) public constant returns(uint,uint,address){\r... */\n    tag_5:\n      jumpi(tag_16, iszero(callvalue))\n      0x0\n      dup1\n      revert\n    tag_16:\n      tag_17\n      0x4\n      dup1\n      dup1\n      calldataload\n      swap1\n      0x20\n      add\n      swap1\n      swap2\n      swap1\n      pop\n      pop\n      jump(tag_18)\n    tag_17:\n      mload(0x40)\n      dup1\n      dup5\n      dup2\n      mstore\n      0x20\n      add\n      dup4\n      dup2\n      mstore\n      0x20\n      add\n      dup3\n      0xffffffffffffffffffffffffffffffffffffffff\n      and\n      0xffffffffffffffffffffffffffffffffffffffff\n      and\n      dup2\n      mstore\n      0x20\n      add\n      swap4\n      pop\n      pop\n      pop\n      pop\n      mload(0x40)\n      dup1\n      swap2\n      sub\n      swap1\n      return\n        /* \"Auction.sol\":4512:5628  function revealWinners() public onlyOwner{\r... */\n    tag_6:\n      jumpi(tag_19, iszero(callvalue))\n      0x0\n      dup1\n      revert\n    tag_19:\n      tag_20\n      jump(tag_21)\n    tag_20:\n      stop\n        /* \"Auction.sol\":697:722  address[3] public winners */\n    tag_7:\n      jumpi(tag_22, iszero(callvalue))\n      0x0\n      dup1\n      revert\n    tag_22:\n      tag_23\n      0x4\n      dup1\n      dup1\n      calldataload\n      swap1\n      0x20\n      add\n      swap1\n      swap2\n      swap1\n      pop\n      pop\n      jump(tag_24)\n    tag_23:\n      mload(0x40)\n      dup1\n      dup3\n      0xffffffffffffffffffffffffffffffffffffffff\n      and\n      0xffffffffffffffffffffffffffffffffffffffff\n      and\n      dup2\n      mstore\n      0x20\n      add\n      swap2\n      pop\n      pop\n      mload(0x40)\n      dup1\n      swap2\n      sub\n      swap1\n      return\n        /* \"Auction.sol\":636:657  Item [3] public items */\n    tag_8:\n      jumpi(tag_25, iszero(callvalue))\n      0x0\n      dup1\n      revert\n    tag_25:\n      tag_26\n      0x4\n      dup1\n      dup1\n      calldataload\n      swap1\n      0x20\n      add\n      swap1\n      swap2\n      swap1\n      pop\n      pop\n      jump(tag_27)\n    tag_26:\n      mload(0x40)\n      dup1\n      dup3\n      dup2\n      mstore\n      0x20\n      add\n      swap2\n      pop\n      pop\n      mload(0x40)\n      dup1\n      swap2\n      sub\n      swap1\n      return\n        /* \"Auction.sol\":1618:2215  function register() public payable{\r... */\n    tag_10:\n        /* \"Auction.sol\":1715:1726  bidderCount */\n      sload(0x17)\n        /* \"Auction.sol\":1683:1690  bidders */\n      0x1\n        /* \"Auction.sol\":1691:1702  bidderCount */\n      sload(0x17)\n        /* \"Auction.sol\":1683:1703  bidders[bidderCount] */\n      0x4\n      dup2\n      lt\n      iszero\n      iszero\n      tag_29\n      jumpi\n      invalid\n    tag_29:\n      0x3\n      mul\n      add\n        /* \"Auction.sol\":1683:1712  bidders[bidderCount].personId */\n      0x1\n      add\n        /* \"Auction.sol\":1683:1726  bidders[bidderCount].personId = bidderCount */\n      dup2\n      swap1\n      sstore\n      pop\n        /* \"Auction.sol\":1947:1957  msg.sender */\n      caller\n        /* \"Auction.sol\":1919:1926  bidders */\n      0x1\n        /* \"Auction.sol\":1927:1938  bidderCount */\n      sload(0x17)\n        /* \"Auction.sol\":1919:1939  bidders[bidderCount] */\n      0x4\n      dup2\n      lt\n      iszero\n      iszero\n      tag_31\n      jumpi\n      invalid\n    tag_31:\n      0x3\n      mul\n      add\n        /* \"Auction.sol\":1919:1944  bidders[bidderCount].addr */\n      0x2\n      add\n      0x0\n        /* \"Auction.sol\":1919:1957  bidders[bidderCount].addr = msg.sender */\n      0x100\n      exp\n      dup2\n      sload\n      dup2\n      0xffffffffffffffffffffffffffffffffffffffff\n      mul\n      not\n      and\n      swap1\n      dup4\n      0xffffffffffffffffffffffffffffffffffffffff\n      and\n      mul\n      or\n      swap1\n      sstore\n      pop\n        /* \"Auction.sol\":2109:2110  5 */\n      0x5\n        /* \"Auction.sol\":2070:2077  bidders */\n      0x1\n        /* \"Auction.sol\":2078:2089  bidderCount */\n      sload(0x17)\n        /* \"Auction.sol\":2070:2090  bidders[bidderCount] */\n      0x4\n      dup2\n      lt\n      iszero\n      iszero\n      tag_33\n      jumpi\n      invalid\n    tag_33:\n      0x3\n      mul\n      add\n        /* \"Auction.sol\":2070:2106  bidders[bidderCount].remainingTokens */\n      0x0\n      add\n        /* \"Auction.sol\":2070:2110  bidders[bidderCount].remainingTokens = 5 */\n      dup2\n      swap1\n      sstore\n      pop\n        /* \"Auction.sol\":2163:2170  bidders */\n      0x1\n        /* \"Auction.sol\":2171:2182  bidderCount */\n      sload(0x17)\n        /* \"Auction.sol\":2163:2183  bidders[bidderCount] */\n      0x4\n      dup2\n      lt\n      iszero\n      iszero\n      tag_35\n      jumpi\n      invalid\n    tag_35:\n      0x3\n      mul\n      add\n        /* \"Auction.sol\":2138:2150  tokenDetails */\n      0x0\n        /* \"Auction.sol\":2138:2162  tokenDetails[msg.sender] */\n      dup1\n        /* \"Auction.sol\":2151:2161  msg.sender */\n      caller\n        /* \"Auction.sol\":2138:2162  tokenDetails[msg.sender] */\n      0xffffffffffffffffffffffffffffffffffffffff\n      and\n      0xffffffffffffffffffffffffffffffffffffffff\n      and\n      dup2\n      mstore\n      0x20\n      add\n      swap1\n      dup2\n      mstore\n      0x20\n      add\n      0x0\n      keccak256\n        /* \"Auction.sol\":2138:2183  tokenDetails[msg.sender]=bidders[bidderCount] */\n      0x0\n      dup3\n      add\n      sload\n      dup2\n      0x0\n      add\n      sstore\n      0x1\n      dup3\n      add\n      sload\n      dup2\n      0x1\n      add\n      sstore\n      0x2\n      dup3\n      add\n      0x0\n      swap1\n      sload\n      swap1\n      0x100\n      exp\n      swap1\n      div\n      0xffffffffffffffffffffffffffffffffffffffff\n      and\n      dup2\n      0x2\n      add\n      exp(0x100, 0x0)\n      dup2\n      sload\n      dup2\n      0xffffffffffffffffffffffffffffffffffffffff\n      mul\n      not\n      and\n      swap1\n      dup4\n      0xffffffffffffffffffffffffffffffffffffffff\n      and\n      mul\n      or\n      swap1\n      sstore\n      pop\n      swap1\n      pop\n      pop\n        /* \"Auction.sol\":2194:2205  bidderCount */\n      0x17\n      0x0\n        /* \"Auction.sol\":2194:2207  bidderCount++ */\n      dup2\n      sload\n      dup1\n      swap3\n      swap2\n      swap1\n      0x1\n      add\n      swap2\n      swap1\n      pop\n      sstore\n      pop\n        /* \"Auction.sol\":1618:2215  function register() public payable{\r... */\n      jump\t// out\n        /* \"Auction.sol\":759:785  address public beneficiary */\n    tag_13:\n      0x16\n      0x0\n      swap1\n      sload\n      swap1\n      0x100\n      exp\n      swap1\n      div\n      0xffffffffffffffffffffffffffffffffffffffff\n      and\n      dup2\n      jump\t// out\n        /* \"Auction.sol\":2227:4111  function bid(uint _itemId, uint _count) public payable{\r... */\n    tag_15:\n        /* \"Auction.sol\":3515:3527  uint balance */\n      0x0\n        /* \"Auction.sol\":3939:3959  Item storage bidItem */\n      dup1\n        /* \"Auction.sol\":3991:3997  uint i */\n      0x0\n        /* \"Auction.sol\":3118:3124  _count */\n      dup4\n        /* \"Auction.sol\":3075:3087  tokenDetails */\n      0x0\n        /* \"Auction.sol\":3075:3099  tokenDetails[msg.sender] */\n      dup1\n        /* \"Auction.sol\":3088:3098  msg.sender */\n      caller\n        /* \"Auction.sol\":3075:3099  tokenDetails[msg.sender] */\n      0xffffffffffffffffffffffffffffffffffffffff\n      and\n      0xffffffffffffffffffffffffffffffffffffffff\n      and\n      dup2\n      mstore\n      0x20\n      add\n      swap1\n      dup2\n      mstore\n      0x20\n      add\n      0x0\n      keccak256\n        /* \"Auction.sol\":3075:3115  tokenDetails[msg.sender].remainingTokens */\n      0x0\n      add\n      sload\n        /* \"Auction.sol\":3075:3124  tokenDetails[msg.sender].remainingTokens < _count */\n      lt\n        /* \"Auction.sol\":3071:3134  if (tokenDetails[msg.sender].remainingTokens < _count) revert() */\n      iszero\n      tag_38\n      jumpi\n        /* \"Auction.sol\":3126:3134  revert() */\n      0x0\n      dup1\n      revert\n        /* \"Auction.sol\":3071:3134  if (tokenDetails[msg.sender].remainingTokens < _count) revert() */\n    tag_38:\n        /* \"Auction.sol\":3159:3171  items.length */\n      0x3\n        /* \"Auction.sol\":3149:3156  _itemId */\n      dup6\n        /* \"Auction.sol\":3149:3171  _itemId > items.length */\n      gt\n        /* \"Auction.sol\":3145:3181  if (_itemId > items.length) revert() */\n      iszero\n      tag_39\n      jumpi\n        /* \"Auction.sol\":3173:3181  revert() */\n      0x0\n      dup1\n      revert\n        /* \"Auction.sol\":3145:3181  if (_itemId > items.length) revert() */\n    tag_39:\n        /* \"Auction.sol\":3572:3578  _count */\n      dup4\n        /* \"Auction.sol\":3529:3541  tokenDetails */\n      0x0\n        /* \"Auction.sol\":3529:3553  tokenDetails[msg.sender] */\n      dup1\n        /* \"Auction.sol\":3542:3552  msg.sender */\n      caller\n        /* \"Auction.sol\":3529:3553  tokenDetails[msg.sender] */\n      0xffffffffffffffffffffffffffffffffffffffff\n      and\n      0xffffffffffffffffffffffffffffffffffffffff\n      and\n      dup2\n      mstore\n      0x20\n      add\n      swap1\n      dup2\n      mstore\n      0x20\n      add\n      0x0\n      keccak256\n        /* \"Auction.sol\":3529:3569  tokenDetails[msg.sender].remainingTokens */\n      0x0\n      add\n      sload\n        /* \"Auction.sol\":3529:3578  tokenDetails[msg.sender].remainingTokens - _count */\n      sub\n        /* \"Auction.sol\":3515:3578  uint balance= tokenDetails[msg.sender].remainingTokens - _count */\n      swap3\n      pop\n        /* \"Auction.sol\":3791:3798  balance */\n      dup3\n        /* \"Auction.sol\":3750:3762  tokenDetails */\n      0x0\n        /* \"Auction.sol\":3750:3774  tokenDetails[msg.sender] */\n      dup1\n        /* \"Auction.sol\":3763:3773  msg.sender */\n      caller\n        /* \"Auction.sol\":3750:3774  tokenDetails[msg.sender] */\n      0xffffffffffffffffffffffffffffffffffffffff\n      and\n      0xffffffffffffffffffffffffffffffffffffffff\n      and\n      dup2\n      mstore\n      0x20\n      add\n      swap1\n      dup2\n      mstore\n      0x20\n      add\n      0x0\n      keccak256\n        /* \"Auction.sol\":3750:3790  tokenDetails[msg.sender].remainingTokens */\n      0x0\n      add\n        /* \"Auction.sol\":3750:3798  tokenDetails[msg.sender].remainingTokens=balance */\n      dup2\n      swap1\n      sstore\n      pop\n        /* \"Auction.sol\":3868:3875  balance */\n      dup3\n        /* \"Auction.sol\":3809:3816  bidders */\n      0x1\n        /* \"Auction.sol\":3817:3829  tokenDetails */\n      0x0\n        /* \"Auction.sol\":3817:3841  tokenDetails[msg.sender] */\n      dup1\n        /* \"Auction.sol\":3830:3840  msg.sender */\n      caller\n        /* \"Auction.sol\":3817:3841  tokenDetails[msg.sender] */\n      0xffffffffffffffffffffffffffffffffffffffff\n      and\n      0xffffffffffffffffffffffffffffffffffffffff\n      and\n      dup2\n      mstore\n      0x20\n      add\n      swap1\n      dup2\n      mstore\n      0x20\n      add\n      0x0\n      keccak256\n        /* \"Auction.sol\":3817:3850  tokenDetails[msg.sender].personId */\n      0x1\n      add\n      sload\n        /* \"Auction.sol\":3809:3851  bidders[tokenDetails[msg.sender].personId] */\n      0x4\n      dup2\n      lt\n      iszero\n      iszero\n      tag_40\n      jumpi\n      invalid\n    tag_40:\n      0x3\n      mul\n      add\n        /* \"Auction.sol\":3809:3867  bidders[tokenDetails[msg.sender].personId].remainingTokens */\n      0x0\n      add\n        /* \"Auction.sol\":3809:3875  bidders[tokenDetails[msg.sender].personId].remainingTokens=balance */\n      dup2\n      swap1\n      sstore\n      pop\n        /* \"Auction.sol\":3962:3967  items */\n      0xd\n        /* \"Auction.sol\":3968:3975  _itemId */\n      dup6\n        /* \"Auction.sol\":3962:3976  items[_itemId] */\n      0x3\n      dup2\n      lt\n      iszero\n      iszero\n      tag_42\n      jumpi\n      invalid\n    tag_42:\n      0x2\n      mul\n      add\n        /* \"Auction.sol\":3939:3976  Item storage bidItem = items[_itemId] */\n      swap2\n      pop\n        /* \"Auction.sol\":3998:3999  0 */\n      0x0\n        /* \"Auction.sol\":3991:3999  uint i=0 */\n      swap1\n      pop\n        /* \"Auction.sol\":3987:4104  for(uint i=0; i<_count;i++) {\r... */\n    tag_44:\n        /* \"Auction.sol\":4003:4009  _count */\n      dup4\n        /* \"Auction.sol\":4001:4002  i */\n      dup2\n        /* \"Auction.sol\":4001:4009  i<_count */\n      lt\n        /* \"Auction.sol\":3987:4104  for(uint i=0; i<_count;i++) {\r... */\n      iszero\n      tag_45\n      jumpi\n        /* \"Auction.sol\":4030:4037  bidItem */\n      dup2\n        /* \"Auction.sol\":4030:4048  bidItem.itemTokens */\n      0x1\n      add\n        /* \"Auction.sol\":4030:4088  bidItem.itemTokens.push(tokenDetails[msg.sender].personId) */\n      dup1\n      sload\n      dup1\n      0x1\n      add\n      dup3\n      dup2\n      tag_47\n      swap2\n      swap1\n      jump\t// in(tag_48)\n    tag_47:\n      swap2\n      0x0\n      mstore\n      keccak256(0x0, 0x20)\n      swap1\n      add\n      0x0\n        /* \"Auction.sol\":4054:4066  tokenDetails */\n      dup1\n        /* \"Auction.sol\":4054:4078  tokenDetails[msg.sender] */\n      0x0\n        /* \"Auction.sol\":4067:4077  msg.sender */\n      caller\n        /* \"Auction.sol\":4054:4078  tokenDetails[msg.sender] */\n      0xffffffffffffffffffffffffffffffffffffffff\n      and\n      0xffffffffffffffffffffffffffffffffffffffff\n      and\n      dup2\n      mstore\n      0x20\n      add\n      swap1\n      dup2\n      mstore\n      0x20\n      add\n      0x0\n      keccak256\n        /* \"Auction.sol\":4054:4087  tokenDetails[msg.sender].personId */\n      0x1\n      add\n      sload\n        /* \"Auction.sol\":4030:4088  bidItem.itemTokens.push(tokenDetails[msg.sender].personId) */\n      swap1\n      swap2\n      swap1\n      swap2\n      pop\n      sstore\n      pop\n        /* \"Auction.sol\":4010:4013  i++ */\n      dup1\n      dup1\n      0x1\n      add\n      swap2\n      pop\n      pop\n        /* \"Auction.sol\":3987:4104  for(uint i=0; i<_count;i++) {\r... */\n      jump(tag_44)\n    tag_45:\n        /* \"Auction.sol\":2227:4111  function bid(uint _itemId, uint _count) public payable{\r... */\n      pop\n      pop\n      pop\n      pop\n      pop\n      jump\t// out\n        /* \"Auction.sol\":5733:5903  function getPersonDetails(uint id) public constant returns(uint,uint,address){\r... */\n    tag_18:\n        /* \"Auction.sol\":5792:5796  uint */\n      0x0\n        /* \"Auction.sol\":5797:5801  uint */\n      dup1\n        /* \"Auction.sol\":5802:5809  address */\n      0x0\n        /* \"Auction.sol\":5829:5836  bidders */\n      0x1\n        /* \"Auction.sol\":5837:5839  id */\n      dup5\n        /* \"Auction.sol\":5829:5840  bidders[id] */\n      0x4\n      dup2\n      lt\n      iszero\n      iszero\n      tag_51\n      jumpi\n      invalid\n    tag_51:\n      0x3\n      mul\n      add\n        /* \"Auction.sol\":5829:5856  bidders[id].remainingTokens */\n      0x0\n      add\n      sload\n        /* \"Auction.sol\":5857:5864  bidders */\n      0x1\n        /* \"Auction.sol\":5865:5867  id */\n      dup6\n        /* \"Auction.sol\":5857:5868  bidders[id] */\n      0x4\n      dup2\n      lt\n      iszero\n      iszero\n      tag_53\n      jumpi\n      invalid\n    tag_53:\n      0x3\n      mul\n      add\n        /* \"Auction.sol\":5857:5877  bidders[id].personId */\n      0x1\n      add\n      sload\n        /* \"Auction.sol\":5878:5885  bidders */\n      0x1\n        /* \"Auction.sol\":5886:5888  id */\n      dup7\n        /* \"Auction.sol\":5878:5889  bidders[id] */\n      0x4\n      dup2\n      lt\n      iszero\n      iszero\n      tag_55\n      jumpi\n      invalid\n    tag_55:\n      0x3\n      mul\n      add\n        /* \"Auction.sol\":5878:5894  bidders[id].addr */\n      0x2\n      add\n      0x0\n      swap1\n      sload\n      swap1\n      0x100\n      exp\n      swap1\n      div\n      0xffffffffffffffffffffffffffffffffffffffff\n      and\n        /* \"Auction.sol\":5821:5895  return (bidders[id].remainingTokens,bidders[id].personId,bidders[id].addr) */\n      swap3\n      pop\n      swap3\n      pop\n      swap3\n      pop\n        /* \"Auction.sol\":5733:5903  function getPersonDetails(uint id) public constant returns(uint,uint,address){\r... */\n      swap2\n      swap4\n      swap1\n      swap3\n      pop\n      jump\t// out\n        /* \"Auction.sol\":4512:5628  function revealWinners() public onlyOwner{\r... */\n    tag_21:\n        /* \"Auction.sol\":4750:4757  uint id */\n      0x0\n        /* \"Auction.sol\":4792:4816  Item storage currentItem */\n      dup1\n        /* \"Auction.sol\":4946:4962  uint randomIndex */\n      0x0\n        /* \"Auction.sol\":5103:5116  uint winnerId */\n      dup1\n        /* \"Auction.sol\":4430:4441  beneficiary */\n      0x16\n      0x0\n      swap1\n      sload\n      swap1\n      0x100\n      exp\n      swap1\n      div\n      0xffffffffffffffffffffffffffffffffffffffff\n      and\n        /* \"Auction.sol\":4418:4441  msg.sender==beneficiary */\n      0xffffffffffffffffffffffffffffffffffffffff\n      and\n        /* \"Auction.sol\":4418:4428  msg.sender */\n      caller\n        /* \"Auction.sol\":4418:4441  msg.sender==beneficiary */\n      0xffffffffffffffffffffffffffffffffffffffff\n      and\n      eq\n        /* \"Auction.sol\":4410:4442  require(msg.sender==beneficiary) */\n      iszero\n      iszero\n      tag_58\n      jumpi\n      0x0\n      dup1\n      revert\n    tag_58:\n        /* \"Auction.sol\":4760:4761  0 */\n      0x0\n        /* \"Auction.sol\":4750:4761  uint id = 0 */\n      swap4\n      pop\n        /* \"Auction.sol\":4745:5621  for (uint id = 0; id < 3; id++) {\r... */\n    tag_60:\n        /* \"Auction.sol\":4768:4769  3 */\n      0x3\n        /* \"Auction.sol\":4763:4765  id */\n      dup5\n        /* \"Auction.sol\":4763:4769  id < 3 */\n      lt\n        /* \"Auction.sol\":4745:5621  for (uint id = 0; id < 3; id++) {\r... */\n      iszero\n      tag_61\n      jumpi\n        /* \"Auction.sol\":4817:4822  items */\n      0xd\n        /* \"Auction.sol\":4823:4825  id */\n      dup5\n        /* \"Auction.sol\":4817:4826  items[id] */\n      0x3\n      dup2\n      lt\n      iszero\n      iszero\n      tag_63\n      jumpi\n      invalid\n    tag_63:\n      0x2\n      mul\n      add\n        /* \"Auction.sol\":4792:4826  Item storage currentItem=items[id] */\n      swap3\n      pop\n        /* \"Auction.sol\":4877:4878  0 */\n      0x0\n        /* \"Auction.sol\":4844:4855  currentItem */\n      dup4\n        /* \"Auction.sol\":4844:4866  currentItem.itemTokens */\n      0x1\n      add\n        /* \"Auction.sol\":4844:4873  currentItem.itemTokens.length */\n      dup1\n      sload\n      swap1\n      pop\n        /* \"Auction.sol\":4844:4878  currentItem.itemTokens.length != 0 */\n      eq\n      iszero\n        /* \"Auction.sol\":4841:5610  if(currentItem.itemTokens.length != 0){\r... */\n      iszero\n      tag_65\n      jumpi\n        /* \"Auction.sol\":5013:5024  currentItem */\n      dup3\n        /* \"Auction.sol\":5013:5035  currentItem.itemTokens */\n      0x1\n      add\n        /* \"Auction.sol\":5013:5042  currentItem.itemTokens.length */\n      dup1\n      sload\n      swap1\n      pop\n        /* \"Auction.sol\":4981:4992  currentItem */\n      dup4\n        /* \"Auction.sol\":4981:5003  currentItem.itemTokens */\n      0x1\n      add\n        /* \"Auction.sol\":4981:5010  currentItem.itemTokens.length */\n      dup1\n      sload\n      swap1\n      pop\n        /* \"Auction.sol\":4966:4978  block.number */\n      number\n        /* \"Auction.sol\":4966:5010  block.number / currentItem.itemTokens.length */\n      dup2\n      iszero\n      iszero\n      tag_66\n      jumpi\n      invalid\n    tag_66:\n      div\n        /* \"Auction.sol\":4965:5042  (block.number / currentItem.itemTokens.length)% currentItem.itemTokens.length */\n      dup2\n      iszero\n      iszero\n      tag_67\n      jumpi\n      invalid\n    tag_67:\n      mod\n        /* \"Auction.sol\":4946:5042  uint randomIndex = (block.number / currentItem.itemTokens.length)% currentItem.itemTokens.length */\n      swap2\n      pop\n        /* \"Auction.sol\":5119:5130  currentItem */\n      dup3\n        /* \"Auction.sol\":5119:5141  currentItem.itemTokens */\n      0x1\n      add\n        /* \"Auction.sol\":5142:5153  randomIndex */\n      dup3\n        /* \"Auction.sol\":5119:5154  currentItem.itemTokens[randomIndex] */\n      dup2\n      sload\n      dup2\n      lt\n      iszero\n      iszero\n      tag_68\n      jumpi\n      invalid\n    tag_68:\n      swap1\n      0x0\n      mstore\n      keccak256(0x0, 0x20)\n      swap1\n      add\n      sload\n        /* \"Auction.sol\":5103:5154  uint winnerId = currentItem.itemTokens[randomIndex] */\n      swap1\n      pop\n        /* \"Auction.sol\":5499:5506  bidders */\n      0x1\n        /* \"Auction.sol\":5507:5515  winnerId */\n      dup2\n        /* \"Auction.sol\":5499:5516  bidders[winnerId] */\n      0x4\n      dup2\n      lt\n      iszero\n      iszero\n      tag_70\n      jumpi\n      invalid\n    tag_70:\n      0x3\n      mul\n      add\n        /* \"Auction.sol\":5499:5521  bidders[winnerId].addr */\n      0x2\n      add\n      0x0\n      swap1\n      sload\n      swap1\n      0x100\n      exp\n      swap1\n      div\n      0xffffffffffffffffffffffffffffffffffffffff\n      and\n        /* \"Auction.sol\":5485:5492  winners */\n      0x13\n        /* \"Auction.sol\":5493:5495  id */\n      dup6\n        /* \"Auction.sol\":5485:5496  winners[id] */\n      0x3\n      dup2\n      lt\n      iszero\n      iszero\n      tag_72\n      jumpi\n      invalid\n    tag_72:\n      add\n      0x0\n        /* \"Auction.sol\":5485:5521  winners[id] = bidders[winnerId].addr */\n      0x100\n      exp\n      dup2\n      sload\n      dup2\n      0xffffffffffffffffffffffffffffffffffffffff\n      mul\n      not\n      and\n      swap1\n      dup4\n      0xffffffffffffffffffffffffffffffffffffffff\n      and\n      mul\n      or\n      swap1\n      sstore\n      pop\n        /* \"Auction.sol\":4841:5610  if(currentItem.itemTokens.length != 0){\r... */\n    tag_65:\n        /* \"Auction.sol\":4771:4775  id++ */\n      dup4\n      dup1\n      0x1\n      add\n      swap5\n      pop\n      pop\n        /* \"Auction.sol\":4745:5621  for (uint id = 0; id < 3; id++) {\r... */\n      jump(tag_60)\n    tag_61:\n        /* \"Auction.sol\":4512:5628  function revealWinners() public onlyOwner{\r... */\n      pop\n      pop\n      pop\n      pop\n      jump\t// out\n        /* \"Auction.sol\":697:722  address[3] public winners */\n    tag_24:\n      0x13\n      dup2\n      0x3\n      dup2\n      lt\n      iszero\n      iszero\n      tag_74\n      jumpi\n      invalid\n    tag_74:\n      add\n      0x0\n      swap2\n      pop\n      sload\n      swap1\n      0x100\n      exp\n      swap1\n      div\n      0xffffffffffffffffffffffffffffffffffffffff\n      and\n      dup2\n      jump\t// out\n        /* \"Auction.sol\":636:657  Item [3] public items */\n    tag_27:\n      0xd\n      dup2\n      0x3\n      dup2\n      lt\n      iszero\n      iszero\n      tag_76\n      jumpi\n      invalid\n    tag_76:\n      0x2\n      mul\n      add\n      0x0\n      swap2\n      pop\n      swap1\n      pop\n      dup1\n      0x0\n      add\n      sload\n      swap1\n      pop\n      dup2\n      jump\t// out\n        /* \"Auction.sol\":26:6035  contract Auction {\r... */\n    tag_48:\n      dup2\n      sload\n      dup2\n      dup4\n      sstore\n      dup2\n      dup2\n      iszero\n      gt\n      tag_78\n      jumpi\n      dup2\n      dup4\n      0x0\n      mstore\n      keccak256(0x0, 0x20)\n      swap2\n      dup3\n      add\n      swap2\n      add\n      tag_79\n      swap2\n      swap1\n      jump\t// in(tag_80)\n    tag_79:\n    tag_78:\n      pop\n      pop\n      pop\n      jump\t// out\n    tag_80:\n      tag_81\n      swap2\n      swap1\n    tag_82:\n      dup1\n      dup3\n      gt\n      iszero\n      tag_83\n      jumpi\n      0x0\n      dup2\n      0x0\n      swap1\n      sstore\n      pop\n      0x1\n      add\n      jump(tag_82)\n    tag_83:\n      pop\n      swap1\n      jump\n    tag_81:\n      swap1\n      jump\t// out\n\n    auxdata: 0xa165627a7a72305820a9b830e5a4579200c56cef4e938943cc947cc62aa92918c8c782ad8f4c16a9180029\n}\n",
				"bytecode": {
					"linkReferences": {},
					"object": "60606040526000601755610011610154565b33601660006101000a81548173ffffffffffffffffffffffffffffffffffffffff021916908373ffffffffffffffffffffffffffffffffffffffff16021790555060408051908101604052806000815260200182815250600d600060038110151561007857fe5b600202016000820151816000015560208201518160010190805190602001906100a2929190610168565b5090505060408051908101604052806001815260200182815250600d60016003811015156100cc57fe5b600202016000820151816000015560208201518160010190805190602001906100f6929190610168565b5090505060408051908101604052806002815260200182815250600d600260038110151561012057fe5b6002020160008201518160000155602082015181600101908051906020019061014a929190610168565b50905050506101da565b602060405190810160405280600081525090565b8280548282559060005260206000209081019282156101a4579160200282015b828111156101a3578251825591602001919060010190610188565b5b5090506101b191906101b5565b5090565b6101d791905b808211156101d35760008160009055506001016101bb565b5090565b90565b610871806101e96000396000f30060606040523615610081576000357c0100000000000000000000000000000000000000000000000000000000900463ffffffff1680631aa3a0081461008657806338af3eed14610090578063598647f8146100e55780636098170514610106578063952587d614610177578063a2fb11751461018c578063bfb231d2146101ef575b600080fd5b61008e610226565b005b341561009b57600080fd5b6100a361039f565b604051808273ffffffffffffffffffffffffffffffffffffffff1673ffffffffffffffffffffffffffffffffffffffff16815260200191505060405180910390f35b61010460048080359060200190919080359060200190919050506103c5565b005b341561011157600080fd5b61012760048080359060200190919050506105b0565b604051808481526020018381526020018273ffffffffffffffffffffffffffffffffffffffff1673ffffffffffffffffffffffffffffffffffffffff168152602001935050505060405180910390f35b341561018257600080fd5b61018a610627565b005b341561019757600080fd5b6101ad600480803590602001909190505061079c565b604051808273ffffffffffffffffffffffffffffffffffffffff1673ffffffffffffffffffffffffffffffffffffffff16815260200191505060405180910390f35b34156101fa57600080fd5b61021060048080359060200190919050506107d1565b6040518082815260200191505060405180910390f35b601754600160175460048110151561023a57fe5b600302016001018190555033600160175460048110151561025757fe5b6003020160020160006101000a81548173ffffffffffffffffffffffffffffffffffffffff021916908373ffffffffffffffffffffffffffffffffffffffff160217905550600560016017546004811015156102af57fe5b600302016000018190555060016017546004811015156102cb57fe5b600302016000803373ffffffffffffffffffffffffffffffffffffffff1673ffffffffffffffffffffffffffffffffffffffff16815260200190815260200160002060008201548160000155600182015481600101556002820160009054906101000a900473ffffffffffffffffffffffffffffffffffffffff168160020160006101000a81548173ffffffffffffffffffffffffffffffffffffffff021916908373ffffffffffffffffffffffffffffffffffffffff160217905550905050601760008154809291906001019190505550565b601660009054906101000a900473ffffffffffffffffffffffffffffffffffffffff1681565b6000806000836000803373ffffffffffffffffffffffffffffffffffffffff1673ffffffffffffffffffffffffffffffffffffffff16815260200190815260200160002060000154101561041857600080fd5b600385111561042657600080fd5b836000803373ffffffffffffffffffffffffffffffffffffffff1673ffffffffffffffffffffffffffffffffffffffff16815260200190815260200160002060000154039250826000803373ffffffffffffffffffffffffffffffffffffffff1673ffffffffffffffffffffffffffffffffffffffff168152602001908152602001600020600001819055508260016000803373ffffffffffffffffffffffffffffffffffffffff1673ffffffffffffffffffffffffffffffffffffffff1681526020019081526020016000206001015460048110151561050357fe5b6003020160000181905550600d8560038110151561051d57fe5b600202019150600090505b838110156105a95781600101805480600101828161054691906107f4565b916000526020600020900160008060003373ffffffffffffffffffffffffffffffffffffffff1673ffffffffffffffffffffffffffffffffffffffff16815260200190815260200160002060010154909190915055508080600101915050610528565b5050505050565b60008060006001846004811015156105c457fe5b60030201600001546001856004811015156105db57fe5b60030201600101546001866004811015156105f257fe5b6003020160020160009054906101000a900473ffffffffffffffffffffffffffffffffffffffff169250925092509193909250565b600080600080601660009054906101000a900473ffffffffffffffffffffffffffffffffffffffff1673ffffffffffffffffffffffffffffffffffffffff163373ffffffffffffffffffffffffffffffffffffffff1614151561068957600080fd5b600093505b600384101561079657600d846003811015156106a657fe5b600202019250600083600101805490501415156107895782600101805490508360010180549050438115156106d757fe5b048115156106e157fe5b06915082600101828154811015156106f557fe5b906000526020600020900154905060018160048110151561071257fe5b6003020160020160009054906101000a900473ffffffffffffffffffffffffffffffffffffffff1660138560038110151561074957fe5b0160006101000a81548173ffffffffffffffffffffffffffffffffffffffff021916908373ffffffffffffffffffffffffffffffffffffffff1602179055505b838060010194505061068e565b50505050565b6013816003811015156107ab57fe5b016000915054906101000a900473ffffffffffffffffffffffffffffffffffffffff1681565b600d816003811015156107e057fe5b600202016000915090508060000154905081565b81548183558181151161081b5781836000526020600020918201910161081a9190610820565b5b505050565b61084291905b8082111561083e576000816000905550600101610826565b5090565b905600a165627a7a72305820a9b830e5a4579200c56cef4e938943cc947cc62aa92918c8c782ad8f4c16a9180029",
					"opcodes": "PUSH1 0x60 PUSH1 0x40 MSTORE PUSH1 0x0 PUSH1 0x17 SSTORE PUSH2 0x11 PUSH2 0x154 JUMP JUMPDEST CALLER PUSH1 0x16 PUSH1 0x0 PUSH2 0x100 EXP DUP2 SLOAD DUP2 PUSH20 0xFFFFFFFFFFFFFFFFFFFFFFFFFFFFFFFFFFFFFFFF MUL NOT AND SWAP1 DUP4 PUSH20 0xFFFFFFFFFFFFFFFFFFFFFFFFFFFFFFFFFFFFFFFF AND MUL OR SWAP1 SSTORE POP PUSH1 0x40 DUP1 MLOAD SWAP1 DUP2 ADD PUSH1 0x40 MSTORE DUP1 PUSH1 0x0 DUP2 MSTORE PUSH1 0x20 ADD DUP3 DUP2 MSTORE POP PUSH1 0xD PUSH1 0x0 PUSH1 0x3 DUP2 LT ISZERO ISZERO PUSH2 0x78 JUMPI INVALID JUMPDEST PUSH1 0x2 MUL ADD PUSH1 0x0 DUP3 ADD MLOAD DUP2 PUSH1 0x0 ADD SSTORE PUSH1 0x20 DUP3 ADD MLOAD DUP2 PUSH1 0x1 ADD SWAP1 DUP1 MLOAD SWAP1 PUSH1 0x20 ADD SWAP1 PUSH2 0xA2 SWAP3 SWAP2 SWAP1 PUSH2 0x168 JUMP JUMPDEST POP SWAP1 POP POP PUSH1 0x40 DUP1 MLOAD SWAP1 DUP2 ADD PUSH1 0x40 MSTORE DUP1 PUSH1 0x1 DUP2 MSTORE PUSH1 0x20 ADD DUP3 DUP2 MSTORE POP PUSH1 0xD PUSH1 0x1 PUSH1 0x3 DUP2 LT ISZERO ISZERO PUSH2 0xCC JUMPI INVALID JUMPDEST PUSH1 0x2 MUL ADD PUSH1 0x0 DUP3 ADD MLOAD DUP2 PUSH1 0x0 ADD SSTORE PUSH1 0x20 DUP3 ADD MLOAD DUP2 PUSH1 0x1 ADD SWAP1 DUP1 MLOAD SWAP1 PUSH1 0x20 ADD SWAP1 PUSH2 0xF6 SWAP3 SWAP2 SWAP1 PUSH2 0x168 JUMP JUMPDEST POP SWAP1 POP POP PUSH1 0x40 DUP1 MLOAD SWAP1 DUP2 ADD PUSH1 0x40 MSTORE DUP1 PUSH1 0x2 DUP2 MSTORE PUSH1 0x20 ADD DUP3 DUP2 MSTORE POP PUSH1 0xD PUSH1 0x2 PUSH1 0x3 DUP2 LT ISZERO ISZERO PUSH2 0x120 JUMPI INVALID JUMPDEST PUSH1 0x2 MUL ADD PUSH1 0x0 DUP3 ADD MLOAD DUP2 PUSH1 0x0 ADD SSTORE PUSH1 0x20 DUP3 ADD MLOAD DUP2 PUSH1 0x1 ADD SWAP1 DUP1 MLOAD SWAP1 PUSH1 0x20 ADD SWAP1 PUSH2 0x14A SWAP3 SWAP2 SWAP1 PUSH2 0x168 JUMP JUMPDEST POP SWAP1 POP POP POP PUSH2 0x1DA JUMP JUMPDEST PUSH1 0x20 PUSH1 0x40 MLOAD SWAP1 DUP2 ADD PUSH1 0x40 MSTORE DUP1 PUSH1 0x0 DUP2 MSTORE POP SWAP1 JUMP JUMPDEST DUP3 DUP1 SLOAD DUP3 DUP3 SSTORE SWAP1 PUSH1 0x0 MSTORE PUSH1 0x20 PUSH1 0x0 KECCAK256 SWAP1 DUP2 ADD SWAP3 DUP3 ISZERO PUSH2 0x1A4 JUMPI SWAP2 PUSH1 0x20 MUL DUP3 ADD JUMPDEST DUP3 DUP2 GT ISZERO PUSH2 0x1A3 JUMPI DUP3 MLOAD DUP3 SSTORE SWAP2 PUSH1 0x20 ADD SWAP2 SWAP1 PUSH1 0x1 ADD SWAP1 PUSH2 0x188 JUMP JUMPDEST JUMPDEST POP SWAP1 POP PUSH2 0x1B1 SWAP2 SWAP1 PUSH2 0x1B5 JUMP JUMPDEST POP SWAP1 JUMP JUMPDEST PUSH2 0x1D7 SWAP2 SWAP1 JUMPDEST DUP1 DUP3 GT ISZERO PUSH2 0x1D3 JUMPI PUSH1 0x0 DUP2 PUSH1 0x0 SWAP1 SSTORE POP PUSH1 0x1 ADD PUSH2 0x1BB JUMP JUMPDEST POP SWAP1 JUMP JUMPDEST SWAP1 JUMP JUMPDEST PUSH2 0x871 DUP1 PUSH2 0x1E9 PUSH1 0x0 CODECOPY PUSH1 0x0 RETURN STOP PUSH1 0x60 PUSH1 0x40 MSTORE CALLDATASIZE ISZERO PUSH2 0x81 JUMPI PUSH1 0x0 CALLDATALOAD PUSH29 0x100000000000000000000000000000000000000000000000000000000 SWAP1 DIV PUSH4 0xFFFFFFFF AND DUP1 PUSH4 0x1AA3A008 EQ PUSH2 0x86 JUMPI DUP1 PUSH4 0x38AF3EED EQ PUSH2 0x90 JUMPI DUP1 PUSH4 0x598647F8 EQ PUSH2 0xE5 JUMPI DUP1 PUSH4 0x60981705 EQ PUSH2 0x106 JUMPI DUP1 PUSH4 0x952587D6 EQ PUSH2 0x177 JUMPI DUP1 PUSH4 0xA2FB1175 EQ PUSH2 0x18C JUMPI DUP1 PUSH4 0xBFB231D2 EQ PUSH2 0x1EF JUMPI JUMPDEST PUSH1 0x0 DUP1 REVERT JUMPDEST PUSH2 0x8E PUSH2 0x226 JUMP JUMPDEST STOP JUMPDEST CALLVALUE ISZERO PUSH2 0x9B JUMPI PUSH1 0x0 DUP1 REVERT JUMPDEST PUSH2 0xA3 PUSH2 0x39F JUMP JUMPDEST PUSH1 0x40 MLOAD DUP1 DUP3 PUSH20 0xFFFFFFFFFFFFFFFFFFFFFFFFFFFFFFFFFFFFFFFF AND PUSH20 0xFFFFFFFFFFFFFFFFFFFFFFFFFFFFFFFFFFFFFFFF AND DUP2 MSTORE PUSH1 0x20 ADD SWAP2 POP POP PUSH1 0x40 MLOAD DUP1 SWAP2 SUB SWAP1 RETURN JUMPDEST PUSH2 0x104 PUSH1 0x4 DUP1 DUP1 CALLDATALOAD SWAP1 PUSH1 0x20 ADD SWAP1 SWAP2 SWAP1 DUP1 CALLDATALOAD SWAP1 PUSH1 0x20 ADD SWAP1 SWAP2 SWAP1 POP POP PUSH2 0x3C5 JUMP JUMPDEST STOP JUMPDEST CALLVALUE ISZERO PUSH2 0x111 JUMPI PUSH1 0x0 DUP1 REVERT JUMPDEST PUSH2 0x127 PUSH1 0x4 DUP1 DUP1 CALLDATALOAD SWAP1 PUSH1 0x20 ADD SWAP1 SWAP2 SWAP1 POP POP PUSH2 0x5B0 JUMP JUMPDEST PUSH1 0x40 MLOAD DUP1 DUP5 DUP2 MSTORE PUSH1 0x20 ADD DUP4 DUP2 MSTORE PUSH1 0x20 ADD DUP3 PUSH20 0xFFFFFFFFFFFFFFFFFFFFFFFFFFFFFFFFFFFFFFFF AND PUSH20 0xFFFFFFFFFFFFFFFFFFFFFFFFFFFFFFFFFFFFFFFF AND DUP2 MSTORE PUSH1 0x20 ADD SWAP4 POP POP POP POP PUSH1 0x40 MLOAD DUP1 SWAP2 SUB SWAP1 RETURN JUMPDEST CALLVALUE ISZERO PUSH2 0x182 JUMPI PUSH1 0x0 DUP1 REVERT JUMPDEST PUSH2 0x18A PUSH2 0x627 JUMP JUMPDEST STOP JUMPDEST CALLVALUE ISZERO PUSH2 0x197 JUMPI PUSH1 0x0 DUP1 REVERT JUMPDEST PUSH2 0x1AD PUSH1 0x4 DUP1 DUP1 CALLDATALOAD SWAP1 PUSH1 0x20 ADD SWAP1 SWAP2 SWAP1 POP POP PUSH2 0x79C JUMP JUMPDEST PUSH1 0x40 MLOAD DUP1 DUP3 PUSH20 0xFFFFFFFFFFFFFFFFFFFFFFFFFFFFFFFFFFFFFFFF AND PUSH20 0xFFFFFFFFFFFFFFFFFFFFFFFFFFFFFFFFFFFFFFFF AND DUP2 MSTORE PUSH1 0x20 ADD SWAP2 POP POP PUSH1 0x40 MLOAD DUP1 SWAP2 SUB SWAP1 RETURN JUMPDEST CALLVALUE ISZERO PUSH2 0x1FA JUMPI PUSH1 0x0 DUP1 REVERT JUMPDEST PUSH2 0x210 PUSH1 0x4 DUP1 DUP1 CALLDATALOAD SWAP1 PUSH1 0x20 ADD SWAP1 SWAP2 SWAP1 POP POP PUSH2 0x7D1 JUMP JUMPDEST PUSH1 0x40 MLOAD DUP1 DUP3 DUP2 MSTORE PUSH1 0x20 ADD SWAP2 POP POP PUSH1 0x40 MLOAD DUP1 SWAP2 SUB SWAP1 RETURN JUMPDEST PUSH1 0x17 SLOAD PUSH1 0x1 PUSH1 0x17 SLOAD PUSH1 0x4 DUP2 LT ISZERO ISZERO PUSH2 0x23A JUMPI INVALID JUMPDEST PUSH1 0x3 MUL ADD PUSH1 0x1 ADD DUP2 SWAP1 SSTORE POP CALLER PUSH1 0x1 PUSH1 0x17 SLOAD PUSH1 0x4 DUP2 LT ISZERO ISZERO PUSH2 0x257 JUMPI INVALID JUMPDEST PUSH1 0x3 MUL ADD PUSH1 0x2 ADD PUSH1 0x0 PUSH2 0x100 EXP DUP2 SLOAD DUP2 PUSH20 0xFFFFFFFFFFFFFFFFFFFFFFFFFFFFFFFFFFFFFFFF MUL NOT AND SWAP1 DUP4 PUSH20 0xFFFFFFFFFFFFFFFFFFFFFFFFFFFFFFFFFFFFFFFF AND MUL OR SWAP1 SSTORE POP PUSH1 0x5 PUSH1 0x1 PUSH1 0x17 SLOAD PUSH1 0x4 DUP2 LT ISZERO ISZERO PUSH2 0x2AF JUMPI INVALID JUMPDEST PUSH1 0x3 MUL ADD PUSH1 0x0 ADD DUP2 SWAP1 SSTORE POP PUSH1 0x1 PUSH1 0x17 SLOAD PUSH1 0x4 DUP2 LT ISZERO ISZERO PUSH2 0x2CB JUMPI INVALID JUMPDEST PUSH1 0x3 MUL ADD PUSH1 0x0 DUP1 CALLER PUSH20 0xFFFFFFFFFFFFFFFFFFFFFFFFFFFFFFFFFFFFFFFF AND PUSH20 0xFFFFFFFFFFFFFFFFFFFFFFFFFFFFFFFFFFFFFFFF AND DUP2 MSTORE PUSH1 0x20 ADD SWAP1 DUP2 MSTORE PUSH1 0x20 ADD PUSH1 0x0 KECCAK256 PUSH1 0x0 DUP3 ADD SLOAD DUP2 PUSH1 0x0 ADD SSTORE PUSH1 0x1 DUP3 ADD SLOAD DUP2 PUSH1 0x1 ADD SSTORE PUSH1 0x2 DUP3 ADD PUSH1 0x0 SWAP1 SLOAD SWAP1 PUSH2 0x100 EXP SWAP1 DIV PUSH20 0xFFFFFFFFFFFFFFFFFFFFFFFFFFFFFFFFFFFFFFFF AND DUP2 PUSH1 0x2 ADD PUSH1 0x0 PUSH2 0x100 EXP DUP2 SLOAD DUP2 PUSH20 0xFFFFFFFFFFFFFFFFFFFFFFFFFFFFFFFFFFFFFFFF MUL NOT AND SWAP1 DUP4 PUSH20 0xFFFFFFFFFFFFFFFFFFFFFFFFFFFFFFFFFFFFFFFF AND MUL OR SWAP1 SSTORE POP SWAP1 POP POP PUSH1 0x17 PUSH1 0x0 DUP2 SLOAD DUP1 SWAP3 SWAP2 SWAP1 PUSH1 0x1 ADD SWAP2 SWAP1 POP SSTORE POP JUMP JUMPDEST PUSH1 0x16 PUSH1 0x0 SWAP1 SLOAD SWAP1 PUSH2 0x100 EXP SWAP1 DIV PUSH20 0xFFFFFFFFFFFFFFFFFFFFFFFFFFFFFFFFFFFFFFFF AND DUP2 JUMP JUMPDEST PUSH1 0x0 DUP1 PUSH1 0x0 DUP4 PUSH1 0x0 DUP1 CALLER PUSH20 0xFFFFFFFFFFFFFFFFFFFFFFFFFFFFFFFFFFFFFFFF AND PUSH20 0xFFFFFFFFFFFFFFFFFFFFFFFFFFFFFFFFFFFFFFFF AND DUP2 MSTORE PUSH1 0x20 ADD SWAP1 DUP2 MSTORE PUSH1 0x20 ADD PUSH1 0x0 KECCAK256 PUSH1 0x0 ADD SLOAD LT ISZERO PUSH2 0x418 JUMPI PUSH1 0x0 DUP1 REVERT JUMPDEST PUSH1 0x3 DUP6 GT ISZERO PUSH2 0x426 JUMPI PUSH1 0x0 DUP1 REVERT JUMPDEST DUP4 PUSH1 0x0 DUP1 CALLER PUSH20 0xFFFFFFFFFFFFFFFFFFFFFFFFFFFFFFFFFFFFFFFF AND PUSH20 0xFFFFFFFFFFFFFFFFFFFFFFFFFFFFFFFFFFFFFFFF AND DUP2 MSTORE PUSH1 0x20 ADD SWAP1 DUP2 MSTORE PUSH1 0x20 ADD PUSH1 0x0 KECCAK256 PUSH1 0x0 ADD SLOAD SUB SWAP3 POP DUP3 PUSH1 0x0 DUP1 CALLER PUSH20 0xFFFFFFFFFFFFFFFFFFFFFFFFFFFFFFFFFFFFFFFF AND PUSH20 0xFFFFFFFFFFFFFFFFFFFFFFFFFFFFFFFFFFFFFFFF AND DUP2 MSTORE PUSH1 0x20 ADD SWAP1 DUP2 MSTORE PUSH1 0x20 ADD PUSH1 0x0 KECCAK256 PUSH1 0x0 ADD DUP2 SWAP1 SSTORE POP DUP3 PUSH1 0x1 PUSH1 0x0 DUP1 CALLER PUSH20 0xFFFFFFFFFFFFFFFFFFFFFFFFFFFFFFFFFFFFFFFF AND PUSH20 0xFFFFFFFFFFFFFFFFFFFFFFFFFFFFFFFFFFFFFFFF AND DUP2 MSTORE PUSH1 0x20 ADD SWAP1 DUP2 MSTORE PUSH1 0x20 ADD PUSH1 0x0 KECCAK256 PUSH1 0x1 ADD SLOAD PUSH1 0x4 DUP2 LT ISZERO ISZERO PUSH2 0x503 JUMPI INVALID JUMPDEST PUSH1 0x3 MUL ADD PUSH1 0x0 ADD DUP2 SWAP1 SSTORE POP PUSH1 0xD DUP6 PUSH1 0x3 DUP2 LT ISZERO ISZERO PUSH2 0x51D JUMPI INVALID JUMPDEST PUSH1 0x2 MUL ADD SWAP2 POP PUSH1 0x0 SWAP1 POP JUMPDEST DUP4 DUP2 LT ISZERO PUSH2 0x5A9 JUMPI DUP2 PUSH1 0x1 ADD DUP1 SLOAD DUP1 PUSH1 0x1 ADD DUP3 DUP2 PUSH2 0x546 SWAP2 SWAP1 PUSH2 0x7F4 JUMP JUMPDEST SWAP2 PUSH1 0x0 MSTORE PUSH1 0x20 PUSH1 0x0 KECCAK256 SWAP1 ADD PUSH1 0x0 DUP1 PUSH1 0x0 CALLER PUSH20 0xFFFFFFFFFFFFFFFFFFFFFFFFFFFFFFFFFFFFFFFF AND PUSH20 0xFFFFFFFFFFFFFFFFFFFFFFFFFFFFFFFFFFFFFFFF AND DUP2 MSTORE PUSH1 0x20 ADD SWAP1 DUP2 MSTORE PUSH1 0x20 ADD PUSH1 0x0 KECCAK256 PUSH1 0x1 ADD SLOAD SWAP1 SWAP2 SWAP1 SWAP2 POP SSTORE POP DUP1 DUP1 PUSH1 0x1 ADD SWAP2 POP POP PUSH2 0x528 JUMP JUMPDEST POP POP POP POP POP JUMP JUMPDEST PUSH1 0x0 DUP1 PUSH1 0x0 PUSH1 0x1 DUP5 PUSH1 0x4 DUP2 LT ISZERO ISZERO PUSH2 0x5C4 JUMPI INVALID JUMPDEST PUSH1 0x3 MUL ADD PUSH1 0x0 ADD SLOAD PUSH1 0x1 DUP6 PUSH1 0x4 DUP2 LT ISZERO ISZERO PUSH2 0x5DB JUMPI INVALID JUMPDEST PUSH1 0x3 MUL ADD PUSH1 0x1 ADD SLOAD PUSH1 0x1 DUP7 PUSH1 0x4 DUP2 LT ISZERO ISZERO PUSH2 0x5F2 JUMPI INVALID JUMPDEST PUSH1 0x3 MUL ADD PUSH1 0x2 ADD PUSH1 0x0 SWAP1 SLOAD SWAP1 PUSH2 0x100 EXP SWAP1 DIV PUSH20 0xFFFFFFFFFFFFFFFFFFFFFFFFFFFFFFFFFFFFFFFF AND SWAP3 POP SWAP3 POP SWAP3 POP SWAP2 SWAP4 SWAP1 SWAP3 POP JUMP JUMPDEST PUSH1 0x0 DUP1 PUSH1 0x0 DUP1 PUSH1 0x16 PUSH1 0x0 SWAP1 SLOAD SWAP1 PUSH2 0x100 EXP SWAP1 DIV PUSH20 0xFFFFFFFFFFFFFFFFFFFFFFFFFFFFFFFFFFFFFFFF AND PUSH20 0xFFFFFFFFFFFFFFFFFFFFFFFFFFFFFFFFFFFFFFFF AND CALLER PUSH20 0xFFFFFFFFFFFFFFFFFFFFFFFFFFFFFFFFFFFFFFFF AND EQ ISZERO ISZERO PUSH2 0x689 JUMPI PUSH1 0x0 DUP1 REVERT JUMPDEST PUSH1 0x0 SWAP4 POP JUMPDEST PUSH1 0x3 DUP5 LT ISZERO PUSH2 0x796 JUMPI PUSH1 0xD DUP5 PUSH1 0x3 DUP2 LT ISZERO ISZERO PUSH2 0x6A6 JUMPI INVALID JUMPDEST PUSH1 0x2 MUL ADD SWAP3 POP PUSH1 0x0 DUP4 PUSH1 0x1 ADD DUP1 SLOAD SWAP1 POP EQ ISZERO ISZERO PUSH2 0x789 JUMPI DUP3 PUSH1 0x1 ADD DUP1 SLOAD SWAP1 POP DUP4 PUSH1 0x1 ADD DUP1 SLOAD SWAP1 POP NUMBER DUP2 ISZERO ISZERO PUSH2 0x6D7 JUMPI INVALID JUMPDEST DIV DUP2 ISZERO ISZERO PUSH2 0x6E1 JUMPI INVALID JUMPDEST MOD SWAP2 POP DUP3 PUSH1 0x1 ADD DUP3 DUP2 SLOAD DUP2 LT ISZERO ISZERO PUSH2 0x6F5 JUMPI INVALID JUMPDEST SWAP1 PUSH1 0x0 MSTORE PUSH1 0x20 PUSH1 0x0 KECCAK256 SWAP1 ADD SLOAD SWAP1 POP PUSH1 0x1 DUP2 PUSH1 0x4 DUP2 LT ISZERO ISZERO PUSH2 0x712 JUMPI INVALID JUMPDEST PUSH1 0x3 MUL ADD PUSH1 0x2 ADD PUSH1 0x0 SWAP1 SLOAD SWAP1 PUSH2 0x100 EXP SWAP1 DIV PUSH20 0xFFFFFFFFFFFFFFFFFFFFFFFFFFFFFFFFFFFFFFFF AND PUSH1 0x13 DUP6 PUSH1 0x3 DUP2 LT ISZERO ISZERO PUSH2 0x749 JUMPI INVALID JUMPDEST ADD PUSH1 0x0 PUSH2 0x100 EXP DUP2 SLOAD DUP2 PUSH20 0xFFFFFFFFFFFFFFFFFFFFFFFFFFFFFFFFFFFFFFFF MUL NOT AND SWAP1 DUP4 PUSH20 0xFFFFFFFFFFFFFFFFFFFFFFFFFFFFFFFFFFFFFFFF AND MUL OR SWAP1 SSTORE POP JUMPDEST DUP4 DUP1 PUSH1 0x1 ADD SWAP5 POP POP PUSH2 0x68E JUMP JUMPDEST POP POP POP POP JUMP JUMPDEST PUSH1 0x13 DUP2 PUSH1 0x3 DUP2 LT ISZERO ISZERO PUSH2 0x7AB JUMPI INVALID JUMPDEST ADD PUSH1 0x0 SWAP2 POP SLOAD SWAP1 PUSH2 0x100 EXP SWAP1 DIV PUSH20 0xFFFFFFFFFFFFFFFFFFFFFFFFFFFFFFFFFFFFFFFF AND DUP2 JUMP JUMPDEST PUSH1 0xD DUP2 PUSH1 0x3 DUP2 LT ISZERO ISZERO PUSH2 0x7E0 JUMPI INVALID JUMPDEST PUSH1 0x2 MUL ADD PUSH1 0x0 SWAP2 POP SWAP1 POP DUP1 PUSH1 0x0 ADD SLOAD SWAP1 POP DUP2 JUMP JUMPDEST DUP2 SLOAD DUP2 DUP4 SSTORE DUP2 DUP2 ISZERO GT PUSH2 0x81B JUMPI DUP2 DUP4 PUSH1 0x0 MSTORE PUSH1 0x20 PUSH1 0x0 KECCAK256 SWAP2 DUP3 ADD SWAP2 ADD PUSH2 0x81A SWAP2 SWAP1 PUSH2 0x820 JUMP JUMPDEST JUMPDEST POP POP POP JUMP JUMPDEST PUSH2 0x842 SWAP2 SWAP1 JUMPDEST DUP1 DUP3 GT ISZERO PUSH2 0x83E JUMPI PUSH1 0x0 DUP2 PUSH1 0x0 SWAP1 SSTORE POP PUSH1 0x1 ADD PUSH2 0x826 JUMP JUMPDEST POP SWAP1 JUMP JUMPDEST SWAP1 JUMP STOP LOG1 PUSH6 0x627A7A723058 KECCAK256 0xa9 0xb8 ADDRESS 0xe5 LOG4 JUMPI SWAP3 STOP 0xc5 PUSH13 0xEF4E938943CC947CC62AA92918 0xc8 0xc7 DUP3 0xad DUP16 0x4c AND 0xa9 XOR STOP 0x29 "
				},
				"gasEstimates": {
					"creation": {
						"codeDepositCost": "432200",
						"executionCost": "infinite",
						"totalCost": "infinite"
					},
					"external": {
						"beneficiary()": "453",
						"bid(uint256,uint256)": "infinite",
						"getPersonDetails(uint256)": "1159",
						"items(uint256)": "619",
						"register()": "142880",
						"revealWinners()": "infinite",
						"winners(uint256)": "612"
					}
				},
				"methodIdentifiers": {
					"beneficiary()": "38af3eed",
					"bid(uint256,uint256)": "598647f8",
					"getPersonDetails(uint256)": "60981705",
					"items(uint256)": "bfb231d2",
					"register()": "1aa3a008",
					"revealWinners()": "952587d6",
					"winners(uint256)": "a2fb1175"
				}
			},
			"userdoc": {
				"methods": {}
			}
		}
	}
}